:100000000C941E040C9465040C9465040C94650413
:100010000C9465040C9465040C9465040C946504BC
:100020000C9465040C9465040C9444200C941821E1
:100030000C94B71A0C9465040C9465040C94650434
:100040000C9465040C9465040C9465040C9465048C
:100050000C9465040C940E1B0C9465040C946504BC
:100060000C9465040C9465040C9465040C9465046C
:100070000C9465040C9465040C9465040C9465045C
:100080000C9465040C9465040C9465040C9465044C
:100090000C9465040C9465040C9465040C9465043C
:1000A0000C9465040C9465040C946504AC00AE00DB
:1000B000AB00000044454255473A206469736162D1
:1000C0006C65642E0A0044454255473A20656E61CE
:1000D000626C65642E0A000A0025303862003A20FE
:1000E0000025303258000A722F6320303132333409
:1000F0003536370A003F00433E20004C25640A0095
:1001000074696D65725F72656164333228293A20C3
:100110002530346C580A006B65796D61705F636FD0
:100120006E6669672E6E6B726F3A2025580A006BF7
:100130006579626F6172645F69646C653A20255805
:100140000A006B6579626F6172645F70726F746FC1
:10015000636F6C3A2025580A00686F73745F6B6593
:1001600079626F6172645F6C65647328293A202537
:10017000580A000A092D20537461747573202D0AE2
:10018000004743433A20382E342E30204156522D1A
:100190004C4942433A20322E302E30204156525F95
:1001A000415243483A20617672350A004F50544913
:1001B0004F4E533A204C5546412045585452414BDE
:1001C000455920434F4E534F4C4520434F4D4D41D1
:1001D0004E44204E4B524F20343039360A0042559F
:1001E000494C443A2020284170722031302032306E
:1001F0003231290A005649443A2030784645454470
:1002000028416E746F696E6520416E6472652920A5
:100210005049443A2030783331343128757461299B
:10022000205645523A203078303030310A000A09E1
:100230002D2056657273696F6E202D0A000A092DF4
:1002400020436F6E736F6C65202D0A4553432F71E9
:100250003A09717569740A000A092D204D616769B0
:1002600063202D0A443A094465627567204D657321
:100270007361676520546F67676C650A583A094D6A
:100280006174726978204465627567204D6F64659A
:1002900020546F67676C65202D2053686F77206B43
:1002A00065797072657373657320696E206D617412
:1002B00072697820677269640A4B3A094B65796202
:1002C0006F61726420446562756720546F67676C64
:1002D00065202D2053686F77206B65797072657388
:1002E00073207265706F72740A4D3A0944656275C5
:1002F00067204D6F75736520546F67676C650A568C
:100300003A0956657273696F6E0A533A09537461FC
:100310007475730A433A09416374697661746520A0
:10032000436F6E736F6C65204D6F64650A46312DA7
:100330004631303A0953776974636820746F204CF2
:100340006179657220302D392028463130203D20DA
:100350004C30290A302D393A095377697463682083
:10036000746F204C6179657220302D390A475241F3
:1003700056453A0953776974636820746F204C615D
:1003800079657220302028616C7465726E617465C5
:10039000290A423A094A756D7020746F20426F6FC6
:1003A000746C6F616465720A4553433A094A756D0E
:1003B0007020746F20426F6F746C6F61646572207F
:1003C00028616C7465726E617465290A453A09503A
:1003D00072696E7420454550524F4D2053657474B8
:1003E000696E67730A4253504143453A09436C654D
:1003F000617220454550524F4D0A4E3A094E4B52BC
:100400004F20546F67676C650A000A002575002E3F
:100410006E6B726F3A20000A002575002E737761AB
:10042000705F6261636B736C6173685F6261636B61
:1004300073706163653A20000A002575002E73779A
:1004400061705F67726176655F6573633A20000A69
:10045000002575002E6E6F5F6775693A20000A00EF
:100460002575002E737761705F72616C745F7267BF
:1004700075693A20000A002575002E737761705F58
:100480006C616C745F6C6775693A20000A002575B1
:10049000002E737761705F7263746C5F7267756949
:1004A0003A20000A002575002E737761705F6C6337
:1004B000746C5F6C6775693A20000A002575002E20
:1004C000636170736C6F636B5F746F5F636F6E7487
:1004D000726F6C3A20000A002575002E73776170E8
:1004E0005F636F6E74726F6C5F636170736C6F6368
:1004F0006B3A20000A0025303258006B65796D6137
:10050000705F636F6E6669672E7261773A20000ACA
:10051000002575002E6D6F7573653A20000A002561
:1005200075002E6B6579626F6172643A20000A0073
:100530002575002E6D61747269783A20000A0025D5
:1005400075002E656E61626C653A20000A002530E8
:1005500032580064656275675F636F6E6669672E07
:100560007261773A20000A0025750064656661753E
:100570006C745F6C617965723A20003F004E4B529B
:100580004F3A206F66660A004E4B524F3A206F6E0C
:100590000A000A6D6F7573653A206F66660A000A75
:1005A0006D6F7573653A206F6E0A000A6B6579622C
:1005B0006F6172643A206F66660A000A6B65796241
:1005C0006F6172643A206F6E0A000A6D617472691D
:1005D000783A206F66660A000A6D61747269783A2B
:1005E000206F6E0A000A64656275673A206F66665E
:1005F0000A000A64656275673A206F6E0A000A0A8B
:100600004A756D70696E6720746F20626F6F746CCD
:100610006F616465722E2E2E2000433E2000436CD5
:10062000656172696E6720454550524F4D0A0065FD
:1006300065636F6E6669673A0A000A0025303258B2
:1006400020006B6579626F6172645F7265706F72B2
:10065000743A20000A0025303258006B6579626FC9
:100660006172645F7365745F6C65643A20006465F1
:100670006C5F6B65795F6269743A2063616E2774A1
:100680002064656C3A20253032580A006164645F4A
:100690006B65795F6269743A2063616E27742061CB
:1006A00064643A20253032580A005B735D004B6564
:1006B00079626F6172642073746172742E0A005BD8
:1006C000575D005B535D005B525D005B445D005B0A
:1006D000435D00080375007400610000001C0341C5
:1006E000006E0074006F0069006E0065002000411C
:1006F000006E006400720065000000040309040934
:10070000025B00030100A0FA0904000001030101DB
:1007100000092111010001224000070581030800A2
:100720000A09040100010300000009211101000170
:10073000226D000705820320000A0904020002035B
:100740000000000921110100012222000705830396
:100750002000010705030320000112011001000021
:100760000008EDFE41310100010200010631FF09E0
:1007700074A1010975150026FF00952075088102F6
:100780000976150026FF00952075089102C0050125
:100790000980A101850319012AB700150126B700B8
:1007A000950175108100C0050C0901A1018504198E
:1007B000012AA002150126A002950175108100C032
:1007C00005010906A1018505050719E029E71500BE
:1007D00025019508750181020507190029EF15000B
:1007E000250195F075018102050819012905950576
:1007F00075019102950175039101C005010906A1DA
:1008000001050719E029E715002501950875018103
:10081000029501750881010507190029FF150026B9
:10082000FF00950675088100050819012905950541
:1008300075019102950175039101C00011241FBE3D
:10084000CFEFDAE0DEBFCDBF04B603FE27C0809154
:100850005A0290915B02A0915C02B0915D028730D8
:10086000904BA740B04BD1F410925A0210925B0209
:1008700010925C0210925D0214BE84B7877F84BF21
:100880000FB6F894A895809160008861809360000D
:10089000109260000FBEE0E0F8E3099511E0A0E0DF
:1008A000B1E0ECE5F7E402C005900D92A239B10782
:1008B000D9F722E0A2E9B1E001C01D92AA35B20742
:1008C000E1F70E94771D0C9445230C940000FF93E0
:1008D000EF93E0919201F0919301309709F009951F
:1008E000EF91FF910895FC018591803011F0EFDFC9
:1008F000FBCF0895FF27E0E230E247FF0CC04195AF
:1009000097FF09C0EDE26095709580959095611D07
:10091000711D811D911D27FF02C0219530E350E21A
:10092000AA27660F771F881F991FAA1FA41710F008
:10093000A41B63955A95A9F7AA3008F0A95FA05D9A
:10094000AF93F395611571058105910541F7ED327E
:1009500011F4EF93F395F21718F43F93F395FBCF4F
:100960008F91B5DFFA95E1F70895E991F9918591B5
:10097000803021F0853219F0AADFF9CF089520E008
:10098000E89455915532C1F3503311F46894559160
:100990005A3348F4505390F3220F022E220F220FA5
:1009A000200D250FF4CF0EF421958991999153369E
:1009B00019F3533729F1533559F1BC018827992789
:1009C000E8945C3621F48991999168945591543654
:1009D00039F446EF7EF077FF0DC08FEF9FEF0AC02E
:1009E00055374AE039F0583540E121F0523642E0BF
:1009F00009F00895FF93EF937DDFEF91FF91B7CF5B
:100A0000FF93EF93FC0181918030B9F360DFFBCF5E
:100A1000FF93EF9368DFF1CFDF93CF93CDB7DEB7CE
:100A20002596A3DFCF91DF91089589EA611101C076
:100A30008AEA0C94421081E0089581E008950C94B4
:100A40001D0508950C9421051F93CF93DF9300D0CB
:100A500000D00F92CDB7DEB749835A836B833091B4
:100A6000B30189819A8131111DC06623B9F0222317
:100A7000A9F00E949D17182F682F89819A810E94E2
:100A80004A1769817A81812F0F900F900F900F90F4
:100A90000F90DF91CF911F910C9402060E94761760
:100AA000182FEFCF0E949D1769817A81EDCFFC014D
:100AB000262F408151816281738184810C942405A9
:100AC000CF93DF93EC0160E00E945705BE01DF91F8
:100AD000CF910C9422050E94E118811102C00E945E
:100AE00085190C9403080C94060808950E94B4120A
:100AF0000E9475052FEF84E39CE0215080409040D8
:100B0000E1F700C000000C94321B0F931F93CF93AA
:100B1000DF93EC0161E00E9457058C01BE010E9449
:100B20001F05882311F1BE01C8010E944C0C8823C7
:100B3000E1F0BE01C8010E949E0C8823B1F0BE0105
:100B4000C8010E94C10D882381F08A81882341F168
:100B500001308CE5180779F00F3D8CE51807E9F0B6
:100B600001151C45E9F40E94760580E0DF91CF91E4
:100B70001F910F91089590911E02892F8E7F90FFF3
:100B8000816080931E0280FF05C086EC90E00E9489
:100B90007304EBCF84EB90E0FACF0E948519E5CF88
:100BA000CE01DF91CF911F910F910C941B0582957F
:100BB00090E09C01220F331F220F331F2C7C959550
:100BC0008795959587958373282B30E0C901880F09
:100BD000991F8A7A359527952575822B0895089552
:100BE0000C94EF0581E008950C94F205CF93C82F83
:100BF0000E94F0058C2FCF910C94F40590E080E0DA
:100C000008950895272F280F3327331FF901EE0F7A
:100C1000FF1FEE0FFF1FE60FF11DEE0FFF1FE45544
:100C2000FF4F859194910895FC01EE0FFF1FE9524B
:100C3000FF4F859194910895CF93DF930E94020610
:100C40000E942807EC01811520E5920708F041C0B9
:100C5000811530E4930708F0B4C0803E910518F583
:100C6000803C910508F09DC0883A910570F4853A62
:100C7000910508F08EC081309105F9F00097E9F0F8
:100C80000497D8F4D0E0C0E018C08F3B9105D0F7AE
:100C9000C85AD0E0CC0FDD1FC35FDE4F0990D8816A
:100CA000C02DD4640AC08115904258F4C11581E06A
:100CB000D80718F4C83ED10528F7CE01DF91CF91AF
:100CC0000895C11590E3D90708F071C0CE019F7057
:100CD0006AC0811525E5920758F5811534E593071B
:100CE00008F09EC0811542E5940750F4C11581E5D6
:100CF000D80708F469C0DC2FCC27C16FD06ADDCFDC
:100D0000982F969596959E0123703327C115D3454C
:100D100008F077C0C1E0D0E002C0CC0FDD1F2A95FB
:100D2000E2F720E2929FC0011124C82BD92B67C0A3
:100D3000C11589E5D807A8F4C11598E5D90708F0C9
:100D400074C0C11526E5D20708F09CCF8C2F0E94F5
:100D5000BF07C82FD0E0DC2FCC27CC27DF71D062B3
:100D6000ACCFC1153AE5D30708F464C0CE01905664
:100D70008115904208F086CF8D2F8F710E94BF079A
:100D800090E0982F882788279F719C012C2BE901E0
:100D9000E6CFC55AD0E0C55CDE4FC881D0E0D06454
:100DA0008CCF805C91090E941406EC0186CFCE01A5
:100DB0009927D3FF03C0EC01D86C7FCFEC01D06C36
:100DC0007CCFDF70D06A79CFCE01E4E0969587952D
:100DD000EA95E1F783702C2F26952695237090E2F3
:100DE000299F90011124382B8C2F8370C1E0D0E013
:100DF00002C0CC0FDD1F8A95E2F7C22BD32BDC6833
:100E00005CCFC1E0D0E002C0CC0FDD1F2A95E2F735
:100E100030E2939FC0011124C82BD92BDA684DCF43
:100E2000D82FCC27C46FD06A48CFDC2FCC27C06F17
:100E3000D06A43CF8C2F8F700E94BF0734E0D695C5
:100E4000C7953A95E1F7CF709C2FEC01D06935CF6B
:100E500082389105B1F1B0F48133910509F475C080
:100E600048F48932910509F469C08A32910509F480
:100E700073C008958533910509F459C089339105EC
:100E800001F10895833E9105A9F138F4803E910562
:100E9000F9F0823E910549F10895863E9105A9F148
:100EA000873E9105C9F1843E910519F520914C02C8
:100EB00021FF1FC080914B0284FD14C087EE90E09B
:100EC000089520914B022370A1F080EE90E00895E8
:100ED00020914B0220FD47C030914C0230FF09C0E9
:100EE00024FF44C090E080E004C020914B0222FD2A
:100EF000F7CF089520914B0222FD3BC030914C0268
:100F000030FDE3CF24FFF5CFEDCF20914B0223FF3F
:100F1000F0CF24FDE7CFD2CF20914B0223FD2CC090
:100F200030914C0231FFEECF84EE90E00895209195
:100F30004B0225FFDECF89E290E0089520914B021D
:100F400025FFD7CF85E390E0089520914B0226FF3F
:100F5000D0CF8AE290E0089520914B0226FFC9CFBE
:100F600081E390E0089589E390E0089583EE90E0B6
:100F7000089582EE90E0089586EE90E008959091B5
:100F80004B0292FF06C0282F28712830F9F4877F82
:100F9000846093FF06C0282F28712831F1F4877EE2
:100FA000846120914C0220FF06C0382F3871383000
:100FB000D9F4877F816021FF06C0282F287128314E
:100FC000D1F4877E816194FD877E0895282F247156
:100FD0002430F9F68B7F8860DCCF282F24712431F0
:100FE00001F78B7E8861DDCF382F3171313019F7F1
:100FF0008E7F8860E0CF282F2171213121F78E7EEE
:101000008861E1CF08950C94020808950C940508B6
:10101000E82FF0E0EA5BFD4F8081089586EE90E0D6
:101020000E9473041F921F9281EE90E09F938F9312
:101030000E940C058EED90E00E94730480914602A0
:101040000E94D7051F928F9389ED90E09F938F9315
:101050000E940C058DB79EB708960FB6F8949EBFF8
:101060000FBE8DBF87ED90E00C947304AEE3B1E04A
:1010700041E050E08D918F3F91F0E82FE295EF70C5
:10108000F0E061A18F709A0101C0220F8A95EAF702
:10109000922F9095962391A382A1822B82A381E027
:1010A000A234B80739F7109245021092460281E047
:1010B0000E9498080C946B05CF93AEE3B1E050E02A
:1010C00040E030E061E070E02D912F3FA9F0E22F89
:1010D000E295EF70F0E080A190E02F7002C095954E
:1010E00087952A95E2F780FD21C0CB01042E01C02F
:1010F000880F0A94EAF7382B4F5F5F4F4430510551
:1011000019F780914502C0E0831719F0309345022A
:10111000C1E02C2F41E066E472E085E492E00E9499
:1011200099080E9473058C2FCF91089580E0E3CF3A
:101130000895FF920F931F93CF93DF93F82E092FFB
:10114000162FD72FC42F222349F081E080939601D8
:101150000E94E71A909395018093940180919601E3
:101160008823A1F080919401909195010E94FF1A2B
:10117000069760F0EF2DF02FA12FBD2FCE0FDF2FA0
:10118000D11DEC17FD0741F410929601DF91CF912C
:101190001F910F91FF90089581918D93F2CFCF937E
:1011A000C82F1F928F938BEF90E09F938F930E9495
:1011B0000C0561E070E080E090E004C0660F771FEE
:1011C000881F991FCA95D2F70E944C160F900F9056
:1011D0000F900F90CF910C94B412CF93DF93EBEF5D
:1011E000E80FEF3308F040C2F0E0E95BFC4D0C94EF
:1011F000E9228FE296E00E9473048BE695E00E945C
:1012000073040E94F0181F928F9388E695E09F93D5
:101210008F930E940C0586E695E00E9473040E945D
:10122000EC18C82F83E595E00E9473041F92CF93BA
:101230008EE495E09F938F930E940C058CE495E0DB
:101240000E94730482E495E00E9473048C2F8170E5
:101250001F928F938FE395E09F938F930E940C05CD
:101260008DE395E00E94730483E395E00E9473048C
:10127000C1FB882780F91F928F9380E395E09F93AD
:101280008F930E940C058EE295E00E94730482E227
:1012900095E00E947304C2FB882780F91F928F9308
:1012A0008FE195E09F938F930E940C058DE195E06F
:1012B0000E94730484E195E00E947304C3FBCC2771
:1012C000C0F91F92CF9381E195E09F938F930E9485
:1012D0000C058FE095E00E9473040E94F418EC0165
:1012E0008BEF94E00E947304DF93CF9386EF94E03A
:1012F0009F938F930E940C0584EF94E00E947304E7
:101300008BED94E00E9473048C2F81701F928F9359
:1013100088ED94E09F938F930E940C058DB79EB744
:1013200080960FB6F8949EBF0FBE8DBF86ED94E0F9
:101330000E9473048FEB94E00E947304C1FB882722
:1013400080F91F928F938CEB94E09F938F930E9470
:101350000C058AEB94E00E94730488EA94E00E94F2
:1013600073048D2F81701F928F9385EA94E09F9371
:101370008F930E940C0583EA94E00E94730481E934
:1013800094E00E947304D695D1701F92DF938EE88B
:1013900094E09F938F930E940C058CE894E00E9448
:1013A00073048AE794E00E947304C2FB882780F9E3
:1013B0001F928F9387E794E09F938F930E940C0571
:1013C00085E794E00E94730483E694E00E9473042E
:1013D000C3FB882780F91F928F9380E694E09F9348
:1013E0008F930E940C058EE594E00E94730484E5BF
:1013F00094E00E947304C4FB882780F91F928F93A6
:1014000081E594E09F938F930E940C058FE494E014
:101410000E9473048DE394E00E947304C5FB882747
:1014200080F91F928F938AE394E09F938F930E9499
:101430000C0588E394E00E9473048CE194E00E9420
:101440007304C6FB882780F91F928F9389E194E08B
:101450009F938F930E940C058DB79EB780960FB611
:10146000F8949EBF0FBE8DBF87E194E00E94730485
:101470008FE094E00E947304C7FBCC27C0F91F9251
:10148000CF938CE094E09F938F930E940C058AE0A9
:1014900094E00E9473040F900F900F900F9081E0E2
:1014A0001CC08EE196E00E9473040E948519F7CF5C
:1014B00088E592E00E947304F2CF80911E02807F43
:1014C00080931E028DE392E00E9473048AE196E00D
:1014D0000E94730481E080939701DF91CF9108957A
:1014E0008EEF95E00E9473040E947605D8CF90910C
:1014F0001E02892F8E7F90FF816080931E0280FFE5
:1015000003C082EF95E0D6CF85EE95E00E9473048C
:1015100080911E02817F80931E02C1CF90911E0296
:10152000892F8D7F91FF826080931E0281FF08C00A
:1015300088ED95E00E94730480911E028160EBCFDC
:101540008AEC95E0B7CF90911E02892F8B7F92FF96
:10155000846080931E0282FF03C08BEB95E0EACF8C
:101560008BEA95E0A7CF90911E02892F877F93FF8A
:10157000886080931E0283FF03C08FE995E0DACF75
:1015800082E995E097CF8EE292E00E94730485EFA6
:1015900091E00E9473048EED91E00E9473048CEA46
:1015A00091E00E94730481E891E084CF83E791E0A9
:1015B0000E9473040E94F00D1F928F9389E591E0C1
:1015C0009F938F930E940C0580910C011F928F9323
:1015D00082E491E09F938F930E940C0580914402D6
:1015E0001F928F938FE291E09F938F930E940C053F
:1015F00080914B0287FB882780F91F928F9387E1A8
:1016000091E09F938F930E940C050E94F31A9F9381
:101610008F937F936F9380E091E09F938F930E94CD
:101620000C058DB79EB746960FB6F8949EBF0FBEB9
:101630008DBF35CF0E94B41290914B02892F97FB3A
:1016400087F9805880934B0287FF03C088E895E0B4
:1016500031CF8DE795E02ECF80E00E94CF081FCFDD
:101660008953FBCF8D51F9CF8BE795E00E9473042E
:1016700080E033CF80E008950C943A0BCF93C82FCD
:1016800080919701882331F0813099F01092970171
:1016900080E00DC00E9432188232D1F78C2F0E9458
:1016A0003A0B811119C08C2F0E94ED088170CF91E7
:1016B00008950E943218823289F38C2F0E943C0BCD
:1016C000811119C0C431C9F050F4CB3061F085EFFD
:1016D00090E00E94730413C081E090E0E7CFC9322C
:1016E00061F0C833A1F78DE392E00E94730487EFA5
:1016F00090E00E94730481E0D9CF1092970180E0BE
:10170000D5CF0C94150587988F9A86988E9A8FB1AD
:1017100090E0880F892F881F990B7E9905C020E0E3
:10172000822B80939A01089522E0FACFE0919A01EA
:10173000EE0FEE0FE0939A018FB190E0880F892FA2
:10174000881F990B4FB146FB222720F946FF02C0A4
:1017500022E030E0822BE82BE0939A01EF70F0E07A
:10176000EE5BFE4F808190919901890F80939901E2
:1017700020E0843054F0809198018F5F809398012D
:1017800060E080E00E94810B21E0809199018D3F13
:1017900054F48091980181508093980161E080E039
:1017A0000E94810B21E080919901082E000C990B79
:1017B00064E070E00E94D52280939901822F089501
:1017C0000F931F93CF93DF93C42FD22FFC018281FD
:1017D0008823C9F040939D010E94E71A90939C01D1
:1017E00080939B0180E28C0F883008F050C0C77056
:1017F00081E001C0880FCA95EAF7DF91CF911F9170
:101800000F910C944A1010919D01141335C08091D2
:101810009B0190919C010E94FF1A883C910560F504
:10182000C0E2CD0F1D17B9F080E2810F883040F47F
:10183000177081E001C0880F1A95EAF70E945110D5
:10184000C83048F481E09D2F977001C0880F9A95A9
:10185000EAF70E944A10802F0E944210C830B8F464
:10186000D77081E001C0880FDA95EAF7DF91CF9158
:101870001F910F910C94511080E28C0F883038F436
:10188000C77081E001C0880FCA95EAF7EFCFDF91FA
:10189000CF911F910F9108950F939C01CB01243F8D
:1018A0004CE5340759F1A8F4293DFCE53F0701F167
:1018B0002A3D4CE53407D1F1283D3C4591F406E240
:1018C00021EE41EE68ED7CE50E94E00B80E00F9197
:1018D0000895263FFCE53F07E9F0B0F0273F3C457F
:1018E000F9F0FC018281882339F110929D01EFCF3C
:1018F00007E225EE45EE69ED7CE5E6CF06E221EE56
:1019000040EE64EF7CE5E0CF07E225EE44EE65EFC4
:101910007CE5DACF06E221EE42EE66EF7CE5D4CF3D
:1019200007E225EE46EE67EF7CE5CECF08E221E048
:1019300045EE6AED7CE5C8CF81E0C9CFCF93DF9358
:10194000EC01FB018281882309F419C1C230FCE556
:10195000DF07C0F1C6319CE5D90730F09E012B5F4F
:101960003C452930310570F50E94F41890934C02E3
:1019700080934B02C031ECE5DE0709F4CFC008F0DC
:101980005BC0C8308CE5D80709F4B6C088F5C43010
:10199000ECE5DE0709F4A8C0C0F4C2308CE5D80736
:1019A00009F49CC080914B028260C330DC4509F48D
:1019B00098C080914B0290914C020E9402190E94A3
:1019C000B41280E0DF91CF91089580914B02806145
:1019D000C630ECE5DE0709F484C080914B028860D4
:1019E000C730DC4508F47DC080914B02806279C02D
:1019F000CC308CE5D80709F489C070F480914B0293
:101A00008C60CA30ECE5DE0709F46BC008F478C0DE
:101A100080914B028E7F65C0CE308CE5D80709F4EB
:101A200079C080914B028B7FCF30DC4508F459C0E0
:101A300080914B028F7E55C0CC3FECE5DE0709F468
:101A400057C030F5C3318CE5D80709F46FC078F47E
:101A5000C131ECE5DE0709F465C0C231DC4509F0AF
:101A6000A8CF0E94B41280914B028F773AC0C53143
:101A70008CE5D80709F462C008F476C080914C0266
:101A80008160CB3FDC4509F094CF80934C0291CF2D
:101A9000C115FDE5DF0709F44DC088F480914C02C3
:101AA0008D7FCE3F9CE5D90781F380914C028E7FDC
:101AB000CF3FDC4550F380914C028360E6CFC230CB
:101AC000FDE5DF0709F459C008F444C080E0C330E5
:101AD000DD4509F06ECF0E9487196BCF80914B02D4
:101AE000816080934B0265CF80914B028460F9CF77
:101AF00080914C028260C9CF80914B028064F1CF0B
:101B00000E94B41280914B028068EBCF80914B020F
:101B10008D7FE7CF80914B02877FE3CF80914B028F
:101B20008F7DDFCF80914B028F7BDBCF80914B028B
:101B3000837FD7CF80914C028C7FA7CF80914B02BF
:101B400082FB992790F921E0922790FB82F990FB84
:101B500083F9C7CF80914C02982F909591708E7F1A
:101B6000892B90FB81F991CF0E94B41290914B0286
:101B7000892F97FB87F98058B4CF81E0ACCF81E003
:101B800021CFCF93DF93EB0186319C4511F50E9465
:101B900032189A81992399F08A7A91E009F490E0B9
:101BA00090939E01811109C089E20E940D180E9444
:101BB0007E1880E0DF91CF91089585E3F6CF809184
:101BC0009E01811104C089E20E941418F0CF85E3C0
:101BD000FBCF81E0EFCF9093A4018093A301089500
:101BE000E091A301F091A401309721F00190F081E0
:101BF000E02D099480E00895EF92FF920F931F93D8
:101C0000CF93DF93EC01E091A301F091A401309711
:101C100009F446C080910C01882341F080914B0269
:101C200087FF04C08881898385E088830280F381EF
:101C3000E02DCE01099580911E0282FF31C080FF08
:101C400004C082E496E00E94730410E000E08CE39C
:101C5000E82E86E0F82E80911E0280FF0EC0FE0165
:101C6000E00FF11F80811F928F93FF92EF920E94ED
:101C70000C050F900F900F900F900F5F1F4F0830C3
:101C8000110549F780911E0280FF0AC08AE396E0A1
:101C9000DF91CF911F910F91FF90EF900C947304FF
:101CA000DF91CF911F910F91FF90EF9008952091B8
:101CB000A1013091A2012817390771F09093A20178
:101CC0008093A101E091A301F091A401309721F04C
:101CD0000680F781E02D0994089520919F013091AD
:101CE000A0012817390771F09093A00180939F01FC
:101CF000E091A301F091A401309721F00084F185D7
:101D0000E02D099408950E94F31A6093AF01709337
:101D1000B0018093B1019093B2016093AB017093D5
:101D2000AC018093AD019093AE0108950E94F31A27
:101D30006093AF017093B0018093B1019093B201B1
:101D40006093A7017093A8018093A9019093AA01C1
:101D5000089585B7806885BF85B7806885BF089579
:101D6000089508950C94B00E08950C94B40E0E943A
:101D7000A90E85E19DE10E94431B0E94B10E0C94C7
:101D8000B20E81E008950C94C10E089508950E944A
:101D9000DE1A0E9436080E94481B0E94830B0C9496
:101DA000B50ECF93C82F80911E0282FF1EC080FF08
:101DB0001CC08BE596E00E94730480911E0280FF98
:101DC00014C01F92CF9386E596E09F938F930E9455
:101DD0000C0580911E020F900F900F900F9080FFC6
:101DE00004C084E596E00E9473048C2FCF910C947C
:101DF000F605EF92FF920F931F93CF93DF93CDB72A
:101E0000DEB72A970FB6F894DEBF0FBECDBF0E9493
:101E1000C50E0E94C60E0E945C0881110E94830EAE
:101E200080E00E940808182F8091A601E82EE12684
:101E3000811709F448C080911E0281FD0E940E089E
:101E4000F12C01E08E2D8023C9F10E94C30E88235E
:101E500099F0FE821F82102381E009F480E08887D8
:101E60000E94E71A8160782F9A8789874E815F8167
:101E700068858A850E94810F8091A60108270093BA
:101E8000A6010E94960B81110E94960E0E94F00DF1
:101E90009091A501891741F10E94F00D8093A50151
:101EA0002A960FB6F894DEBF0FBECDBFDF91CF915B
:101EB0001F910F91FF90EF900C94D10EF394000FAF
:101EC00084E0F812BFCF8FEF89838A831B820E9440
:101ED000E71A8160782F9D838C8349815A816B81B9
:101EE0008D810E94810FCDCF2A960FB6F894DEBF68
:101EF0000FBECDBFDF91CF911F910F91FF90EF905B
:101F00000895DF92EF92FF920F931F93CF93DF9389
:101F1000CDB7DEB72B970FB6F894DEBF0FBECDBF9F
:101F20007A878B87F42E052F162FE72ED82E611176
:101F30000E9452181E821D827E2DEC82DD824F2D62
:101F4000502F612F8D2D9E812B960FB6F894DEBFFA
:101F50000FBECDBFDF91CF911F910F91FF90EF90FA
:101F6000DF900C942A15FC01808191810C94DF177D
:101F7000CF93C82F882309F444C08CEF8C0F813A8B
:101F8000C8F48C2F0E943E0B81113BC06C2F8091B6
:101F90000001909101010E94A019882329F08C2F43
:101FA0000E9414180E947E188C2F0E940D18CF9149
:101FB0000C947E1880E28C0F883048F4C77081E062
:101FC00001C0880FCA95EAF70E943518F0CFEBE5FB
:101FD000EC0FE33040F4F0E0E058FE4F808190E0F9
:101FE000CF910C94570EC85AC73158F4EC2FF0E03B
:101FF000EE0FFF1FEE5AFE4F80819181CF910C941E
:102000006D0ECF910895882329F19CEF980F913A96
:1020100020F40E9414180C947E1890E2980F9830C7
:1020200050F4877091E001C0990F8A95EAF7892FE3
:102030000E943B18F0CF9BE5980F933020F490E07E
:1020400080E00C94570E885A873120F490E080E0AD
:102050000C946D0E08951F93CF93DF93182FEB010F
:102060000E94B80F209731F4812FDF91CF911F91FB
:102070000C9403108FE99FE00197F1F700C0000076
:102080002197F0CF70E060E0893311F460E570E0F3
:102090000C942B10882321F00E9435180C947E1884
:1020A0000895882321F00E943B180C947E1808950F
:1020B000BF92CF92DF92EF92FF920F931F93CF9335
:1020C000DF936C01D62FC72FFC0112810581029589
:1020D0000F700E942B18E82E8823A1F0E12E112307
:1020E00089F08C2F807F803429F080E28D0FE12CE5
:1020F000883040F082E00E94C9180E942B1891E0BD
:10210000E82EE926BC2EB2949FE0B922EB2DF0E038
:10211000EA57FC4D0C94E9220C2F0F70C07F11F090
:102120000295007F1123A9F0002359F080E28D0F62
:10213000883010F0D11109C0802F0E9435180E94FC
:102140007E188D2F0E94B80F14C0802F0E94451852
:10215000F6CF8D2F0E940310002359F080E28D0FDF
:10216000883010F0D1112CC0802F0E943B180E94A3
:102170007E182B2D2850330B2430310520F40E947B
:10218000F00D0E94F605EE2009F493C10E94271875
:1021900080FD8FC1F60112820E9421180E94AE16A6
:1021A000C6010E947A120E942118DF91CF911F91DF
:1021B0000F91FF90EF90DF90CF90BF900C94CF16CF
:1021C000802F0E944B18D3CFFC2FFF70FF2EC07FB3
:1021D000C03219F0F29480EFF822DD2369F0D1309B
:1021E00049F1112391F1002351F1F601858180FF1E
:1021F000A8CF8F70858323C0112381F0011106C001
:102200000E9465188F290E944A10B3CF0130C1F790
:102210000E9465188F290E946B18ABCF011106C070
:102220000E9474188F2D0E945110A3CF013009F421
:10223000A0CFF6CF112329F0063008F09ACF8F2DCA
:10224000E2CF053008F095CFEDCF002359F3D93315
:1022500049F4FFEF27EE33E0F15020403040E1F742
:1022600000C000008D2F0E94031083CF8C2F869515
:102270008695837069F0813009F07BCF8D2F9C2F7C
:102280009370111102C090E080E00E946D0E71CF3A
:102290008D2F9C2F9370111102C090E080E00E945E
:1022A000570E67CF8C2F837009F041C0111161CF99
:1022B0004D2F429546954770440F440F0D2F0F70D8
:1022C00010E030E020E0042E04C0000F111F221F98
:1022D000331F0A94D2F760E070E0CB01D4FF0FC047
:1022E0006FE070E080E090E004C0660F771F881F09
:1022F000991F4A95D2F76095709580959095C695EF
:10230000C695C370602B712B822B932BC23049F082
:1023100058F4C13019F00E9460162BCF0E944E165F
:1023200028CF0E94721625CF0E944C1622CF869588
:10233000112311F08C2F8170882309F41ACF4D2FAF
:10234000429546954770440F440F0D2F0F7010E0D3
:1023500030E020E0042E04C0000F111F221F331FA5
:102360000A94D2F760E070E0CB01D4FF0FC06FE0B9
:1023700070E080E090E004C0660F771F881F991F0F
:102380004A95D2F76095709580959095C695C695BB
:10239000C370602B712B822B932BC23049F058F401
:1023A000C13019F00E942517E4CE0E941317E1CE28
:1023B0000E943717DECE0E948816DBCECF70112325
:1023C00029F08C2F0E94AE168D2F1DCF8D2F0E94CD
:1023D00051108C2F0E94CF16CCCED23F89F160F4E1
:1023E000D03FC9F0D13F29F1112309F442C00111B6
:1023F000A8CE8C2F8F7121C0D33F39F1D43FA1F7E4
:10240000112369F1CF718C2F0E94AE1663E08C2FDF
:102410000E94B418AECE112341F0053008F0A9CEC9
:102420008C2F8F710E94F216A4CE063008F0A1CE38
:10243000F7CF8C2F8F71112369F20E94AE1699CEBF
:102440008C2F8F711123C9F3C5CF112329F08C2F45
:102450008F710E9499168DCE0E9494168ACE81E0CB
:102460000E94C918023008F484CE82E00E94C91884
:1024700080CE002359F0D93309F0F4CE8FEF97EED8
:10248000E3E081509040E040E1F7EACE8C2F8F717D
:10249000A1CF4C2F4F706D2FC6010E94FE050E94E8
:1024A000C41567CE4C2F4F706D2FC6010E940106D8
:1024B00060CEDF91CF911F910F91FF90EF90DF9051
:1024C000CF90BF9008950F931F93CF93DF93EC01AC
:1024D000688179818A810E94E9178C010E944917DD
:1024E0000E944B16B801CE01DF91CF911F910F9141
:1024F0000C945810CF93DF93EC018B819C81892B36
:1025000029F08881998189238F3F59F4DF91CF91F8
:102510000895CE010E946312CE01DF91CF910C94F9
:102520006005CE010E9485058111F3CF0E942B1812
:10253000882361F38A81882349F382E0DF91CF9178
:102540000C94C91890E080E00E94570E90E080E063
:102550000E946D0E0E9452180E9462180C947E1800
:102560000E941B180C94A2120E9442180C94B012E4
:10257000E92FE295EF70E250EE3070F4F0E0EA56A9
:10258000FC4D0C94E922803F19F020F4883E20F4A1
:1025900081E00895843FE1F380E00895883EC0F330
:1025A000813FD1F7F5CF93FB882780F908950E94EA
:1025B000DF170C94B812CF93DF9300D000D00F92A6
:1025C000CDB7DEB70F900F900F900F900F90DF9167
:1025D000CF910895CF93DF9300D000D000D0CDB736
:1025E000DEB726960FB6F894DEBF0FBECDBFDF91E3
:1025F000CF9108951F93CF93DF93C091B40116E05C
:102600008091B5018C1304C0DF91CF911F91089583
:10261000D0E01C9FF0011D9FF00D1124EA54FE4FE5
:102620004081518162817381848195810E94EA1287
:102630002196C770E5CF4091E6015091E701609186
:10264000E8017091E9018091EA019091EB010C940D
:10265000EA121F93CF93DF938091EB01807FA9F45F
:102660008091E801882389F08091B401C091B5017F
:102670006091E6017091E701A091E901B091EA0152
:10268000D62FD72316E0C81304C0DF91CF911F9136
:10269000089590E0109711F0DF3F19F401968770CC
:1026A000F2CF189F9001199F300D1124F901EA54BF
:1026B000FE4F41814713F2CF40814613EFCF428155
:1026C0004111ECCF438154814A1B5B0B483C5105BF
:1026D00028F78091EB018F7080618093EB01F90105
:1026E000E554FE4F80818F708061808386EE91E09B
:1026F0000E947A12DF91CF911F910C94FA12AF923F
:10270000BF92CF92DF92EF92FF920F931F93CF93DE
:10271000DF93CDB7DEB761970FB6F894DEBF0FBE7B
:10272000CDBF8C0185E0F801DE011D9601900D9270
:102730008A95E1F7F80140815181E28086EEC82E4A
:1027400081E0D82E6091E9017091EA01611571056F
:1027500009F461C19091E6012091E701892F82235C
:102760008F3F09F458C1A380B480F090E801F501CF
:10277000E61BF70BFF2009F4FCC08091EB01382F1A
:10278000307FE83CF10508F0B2C0311179C0FE2C71
:10279000251323C0941321C0E1101FC08F708061E6
:1027A0008093EB010E941B13C6010E947A12809154
:1027B000EB01F80185838F2D61960FB6F894DEBF8B
:1027C0000FBECDBFDF91CF911F910F91FF90EF9082
:1027D000DF90CF90BF90AF900895AB2829F0842F61
:1027E00085238F3F09F033C180E0F82FF170DF2E91
:1027F00080FF3CC08091B4012091B50136E0821386
:1028000015C04D875E878D859E850E94DF17292F15
:1028100022952F702230F0F0243018F59F70F1F0DF
:10282000F8019581907FD1F4D12C1EC090E0389FA3
:10283000F001399FF00D1124EA54FE4F61816513B8
:1028400006C06081641303C062816E110FC00196DF
:102850008770D5CF9F7011F0882331F3805E883068
:1028600018F3C8010E947A12FD2CA5CFEE2009F4BE
:10287000A2CF8091EB0181608093EB01F12C9BCF83
:10288000251306C0941304C0F801EE2009F48DC08E
:102890004D875E878D859E850E94D712882319F10A
:1028A000EE2009F18091EB01803270F02091E60179
:1028B0003091E70138872F831986BB86AA868C87DB
:1028C000CE0107960E947A1286E0F801A6EEB1E0EA
:1028D00001900D928A95E1F70E9429130E941B1323
:1028E000FF24F39468CFC8010E947A12F9CF311106
:1028F00013C07A2DB98AA88A6E2D89890E94DB12AD
:1029000086EE91E00E947A1286E0F60111928A9595
:10291000E9F70E941B13B2CF25130FC094130DC00B
:10292000E1100BC0F8018583C8010E947A1286E08D
:10293000F60111928A95E9F73ECF4D875E878D8526
:102940009E850E94D712882371F2EE2061F2809159
:10295000EB01803208F4B8CF2091E6013091E70115
:102960003A8329831B82BD82AC828E83CE0101967D
:10297000A9CFE83CF10508F041C0FE2CEE2009F497
:10298000B2CF25132AC0941328C08091EB0180FD9B
:102990001BC0982F907FC1F0F8018583903F31F0E4
:1029A000982F907F905F8F70892B8583C8010E943C
:1029B0007A1286E0F801A6EEB1E001900D928A95B8
:1029C000E1F70E941B13F7CE86E0F801A6EEB1E016
:1029D00001900D928A95E1F7EECE4D875E878D8549
:1029E0009E850E94D71281116FCF8091EB0181608B
:1029F0008093EB01C8010E947A12DDCE7A2DB98A4C
:102A0000A88A6E2D89890E94DB1286E0F601119258
:102A10008A95E9F7D6CFEE2009F465CF4D875E871A
:102A20008D859E850E94D712F82E882309F45BCFEE
:102A300086E0F801A6EEB1E001900D928A95E1F7EB
:102A400086EE91E00E94B30F0E942913BACF81E075
:102A50008E25CBCE1F93CF93DF93CDB7DEB72C97C8
:102A60000FB6F894DEBF0FBECDBF4F83588769877E
:102A70007A878B879C87CE0107960E947F138823D5
:102A800069F08A859B85892B39F04F815885842F81
:102A900085238F3F09F071C016E05FC086E0FE011C
:102AA0003796DE01119601900D928A95E1F78A859D
:102AB0009B85892B89F38F81988589238F3F61F3CB
:102AC0002091B50130E0C9010196877099274091A6
:102AD000B4014817190671F40E94B4121092B5019E
:102AE0001092B40186E0E6EEF1E0DF011D928A95D6
:102AF000E9F7D2CF96E0929FD001939FB00D1124B9
:102B0000AA54BE4FFE01319601900D929A95E1F7BD
:102B10008093B5010E94FA12BFCF819FC00111249A
:102B20008A549E4F0E947F138823E9F0E091B401FC
:102B30001E9FF0011124EA54FE4F408151816281B1
:102B40007381848195810E94EA128091B40190E0A2
:102B50000196877099278093B4018091B401909178
:102B6000B5018913DACF2C960FB6F894DEBF0FBEED
:102B7000CDBFDF91CF911F91089569857A858B85AF
:102B80009C850E94EA1288CFEF92FF920F931F93C9
:102B9000CF93DF938C01892B81F0F12CEE24E39409
:102BA000E8012196F8018491843770F4843008F0AC
:102BB0005FC08130B1F08230A1F1DF91CF911F91E0
:102BC0000F91FF90EF900895853709F44CC008F4F9
:102BD0003DC09CE7980F903780F78F770E940310D5
:102BE00049C00E5F1F4FFE01849190E2980F98300C
:102BF00060F48770FE2D01C0FF0F8A95EAF78F2FD2
:102C00000E9455180E947E1802C00E94B80F8F2D96
:102C1000815030F2EFE9FFE03197F1F700C000009A
:102C2000F7CF0E5F1F4FFE01849190E2980F98300E
:102C300050F48770FE2D01C0FF0F8A95EAF78F2FA1
:102C40000E945B18DFCF0E940310E1CF0E5F1F4F81
:102C5000FE01C491C150D8F28FE99FE00197F1F7CE
:102C600000C00000F7CF0E5F1F4FFE01F490CFCFE2
:102C70000E94B80F8E01CBCF08950C943C160E9491
:102C80003D166093F5017093F6018093F7019093E0
:102C9000F8010C94A21208950C943F160F931F9301
:102CA0000091F5011091F6012091F7013091F801A2
:102CB000602B712B822B932B1F910F910C943F163D
:102CC0000F931F930091F5011091F6012091F701E8
:102CD0003091F80160237123822393231F910F9178
:102CE0000C943F160F931F930091F5011091F6017C
:102CF0002091F7013091F8016027712782279327EF
:102D00001F910F910C943F160C943C160C94841652
:102D10000E9486166093F1017093F2018093F30193
:102D20009093F4010C94A21260E070E0CB010C943B
:102D300088160F931F9341E050E060E070E08A0135
:102D40009B0104C0000F111F221F331F8A95D2F769
:102D5000C901B8011F910F910C9488160F931F930E
:102D600041E050E060E070E004C0440F551F661F72
:102D7000771F8A95D2F78091F1019091F201A0918D
:102D8000F301B091F4018A019B01082B192B2A2B26
:102D90003B2BC901B8011F910F910C9488160F931A
:102DA0001F9341E050E060E070E004C0440F551F05
:102DB000661F771F8A95D2F7CB01BA01609570958F
:102DC000809590950091F1011091F2012091F3010D
:102DD0003091F40160237123822393231F910F917B
:102DE0000C9488160F931F9341E050E060E070E070
:102DF00004C0440F551F661F771F8A95D2F7809134
:102E0000F1019091F201A091F301B091F4018A01D6
:102E10009B01082719272A273B27C901B8011F91C1
:102E20000F910C9488160F931F930091F10110914C
:102E3000F2012091F3013091F401602B712B822B70
:102E4000932B1F910F910C9488160F931F93009151
:102E5000F1011091F2012091F3013091F40160230E
:102E60007123822393231F910F910C9488160F9343
:102E70001F930091F1011091F2012091F301309123
:102E8000F40160277127822793271F910F910C94DB
:102E900088160895990F990F890F982F977041E020
:102EA00001C0440F9A95EAF786958695869595E038
:102EB000899FF0011124E451FE4F30E020E070E0E2
:102EC0005191DF011197CB01022E02C09695879593
:102ED0000A94E2F7817081958527842385278C9356
:102EE0002F5F3F4F2530310559F70895990F990FFE
:102EF000890F982F977086958695869525E0829FF5
:102F0000F0011124E451FE4F50E040E080E02191B7
:102F100030E0092E02C0369527950A94E2F7217019
:102F20003327042E01C0220F0A94EAF7822B4F5F49
:102F30005F4F4530510559F70895BF92CF92DF9208
:102F4000EF92FF920F931F93CF93DF938C01C0906A
:102F5000F101D090F201E090F301F090F401809142
:102F6000F5019091F601A091F701B091F801C82AFE
:102F7000D92AEA2AFB2ACFE1D0E0BC2ED701C6012C
:102F80000C2E04C0B695A795979587950A94D2F70D
:102F900080FD0EC0219788F7B12C8B2DDF91CF914A
:102FA0001F910F91FF90EF90DF90CF90BF90089509
:102FB000B8018C2F0E941C06019761F3EECFCF93CE
:102FC000DF93EC010E949D17BE01DF91CF910C941D
:102FD0001C061F93CF93DF93EB019091B3019923CC
:102FE00031F0CB01DF91CF911F910C94DF17882333
:102FF00079F0CB010E949D17182F682FCE010E94F7
:103000004A17BE01812FDF91CF911F910C941C06AE
:10301000CB010E947617182FF4CF682F8091000102
:10302000909101010C94421A682F809100019091B7
:1030300001010C944D1A80910001909101010C94B2
:10304000581A8091F9018595859585950895809107
:10305000F901877008959091F901977081E009F462
:1030600080E0089580911D02089590911D02892BA2
:1030700080931D020895809590911D02982390934E
:103080001D02089510921D02089590911C02892B33
:1030900080931C020895809590911C029823909330
:1030A0001C02089510921C02089590911B02892B16
:1030B00080931B020895809590911B029823909312
:1030C0001B02089510921B0208958091FA01089541
:1030D00008950C9468189091FA01981721F0809344
:1030E000FA010C94691808958091FA01882329F057
:1030F0001092FA0180E00C9469180895E0910001A3
:10310000F091010180911D028083E0910001F09116
:103110000101808190911C02892B8083E091000144
:10312000F0910101808190911B02892B8083909105
:10313000FA01992381F0E0910001F0910101808171
:10314000892B808380910001909101010E948C194C
:1031500081110E94741880910001909101010C94DA
:10316000FC0D08950C94B11898E0899F90011124EA
:10317000622B6093F9010E94AE168091F90185954A
:10318000859585950C94B2181092F90180E00C9405
:10319000B2189091F901809589238093F901282F25
:1031A000277071F4282F082E000C330B921713068A
:1031B00039F08595859585950E94CF160C94C41895
:1031C000089590E080E00E940B2321E08B3E9E4F0B
:1031D00009F020E0822F089582E090E00C94032310
:1031E00083E090E00C940323CF9384E090E00E946E
:1031F0000323C82F81E290E00E940323982F8C2F95
:10320000CF910895CF93C92F682F84E090E00E945A
:1032100011236C2F81E290E0CF910C941123AB012C
:10322000BC018FE090E00C942323AB01BC0183E14F
:1032300090E00C94232360E070E0CB010C9415190E
:1032400060E070E0CB010E940F190C941B196BEE2B
:103250007EEF90E080E00E942F2360E082E090E02B
:103260000E94112360E083E090E00E9411231092FD
:10327000F5011092F6011092F7011092F80160E04A
:1032800084E090E00E94112360E081E290E00E94DF
:10329000112360E085E090E00E94112360E086E069
:1032A00090E00E9411236FEF87E090E00E941123CD
:1032B00040E050E0BA0188E090E00E94232360E003
:1032C0008DE090E00E94112340E050E0BA0188E1D7
:1032D00090E00E94232360E087E190E00E941123A8
:1032E00040E050E0BA018CE190E00E94232360E0CE
:1032F00080E290E00E94112340E050E0BA0188E1B2
:1033000090E00E9423230C9420190C942719682F15
:103310008EE090E00C941123FC01329680910C0118
:10332000882321F080914B029EE187FF96E080E0A8
:10333000915008F4089521912223D1F38F5FF8CFA3
:10334000662301F120910C012223F1F020914B0220
:1033500027FF1AC0462F4695469546954E3190F464
:10336000677021E030E002C0220F331F6A95E2F758
:10337000840F911DFC01828190E02823392381E094
:10338000232B69F480E00895FC0132960896219180
:10339000261721F0E817F907D1F7F4CF81E0089557
:1033A0009C01FC0132969FEF80E04191461751F05D
:1033B0009F3F19F4411101C0982F8F5F8630A9F704
:1033C0009F3F09F40895290F311D97FD3A95F901A2
:1033D00062830895FC01329608962191261303C05A
:1033E000DF0111971C92E817F907B9F70895E62F46
:1033F000E695E695E695EE3170F4E80FF92FF11DAC
:10340000677021E030E001C0220F6A95EAF78281FF
:10341000822B8283089580911E0280FF0CC01F9230
:103420006F938CE896E09F938F930E940C050F900A
:103430000F900F900F900895E62FE695E695E6958C
:10344000EE3178F4E80FF92FF11D677021E030E0DC
:1034500001C0220F6A95EAF72095828128232283F2
:10346000089580911E0280FF0CC01F926F938EE61C
:1034700096E09F938F930E940C050F900F900F90F2
:103480000F90089520910C01222329F020914B02E6
:1034900027FD0C94F7190C94D01920910C012223CC
:1034A00029F020914B0227FD0C941C1A0C94EA1968
:1034B000FC01329680910C01882351F080914B02DF
:1034C00087FF06C08EE1DF011D928A95E9F7089516
:1034D00086E0F9CF089508950C946B1A80915102FB
:1034E000843049F10E946C1A80E00E94F605109227
:1034F0001F0288E190E020E40FB6F894A89580932D
:1035000060000FBE2093600083B7817F846083BF1B
:1035100083B7816083BF7894889583B78E7F83BF9C
:103520000FB6F894A8958091600088618093600040
:10353000109260000FBE089508950E946A1A0E94BA
:103540005C080E949C1A80E00E94080891E08111AA
:1035500001C090E0892F089508950C94AC1A0E9440
:10356000B4120E94F00D0E94F6050C94AD1A1F9241
:103570001FB61F9211248F939F93AF93BF93809197
:103580001F02811113C08091470290914802A091BF
:103590004902B0914A024196A11DB11D8093470294
:1035A00090934802A0934902B0934A02BF91AF9111
:1035B0009F918F911F901FBE1F90189582E084BD30
:1035C00093E095BD9AEF97BD80936E0008952FB755
:1035D000F8948091470290914802A0914902B091DD
:1035E0004A022FBF08952FB7F89460914702709157
:1035F00048028091490290914A022FBF08959C0190
:103600004FB7F8948091470290914802A0914902E7
:10361000B0914A024FBF821B930B089578941F927A
:103620001FB61F9211248F939F93AF93BF938091E6
:10363000470290914802A0914902B0914A02019636
:10364000A11DB11D8093470290934802A0934902A7
:10365000B0934A02BF91AF919F918F911F901FBE6F
:103660001F90189587E797E79093010880930008CB
:1036700088E19AE00FB6F894A895809360000FBE99
:1036800090936000FFCF90939301809392010895EF
:103690000E94E118811102C00E9485190E94EC1855
:1036A00080931E020E94F41890934C0280934B0268
:1036B0000E94F018682F70E090E080E00E944C16A5
:1036C0006091F1017091F2018091F3019091F40108
:1036D0000C9486168091430208950895CF93DF934A
:1036E00000D00F92CDB7DEB790915102943019F50A
:1036F00089837B836A8382E08093E9008FEF9091D6
:10370000E800815095FD06C095ED9A95F1F700000F
:103710008111F5CF8091E80085FF0DC050E040E0B9
:1037200063E070E0CE0101960E94391E8091E800AE
:103730008E778093E8000F900F900F90DF91CF91DC
:103740000895BC0184E00C946E1BBC0183E00C94D2
:103750006E1BCF93DF93EC0180910C018823B1F1B4
:1037600080914B0287FF32C060E282E08093E900E3
:103770008FEF9091E800815095FD06C095ED9A95E8
:10378000F1F700008111F5CF8091E80085FF1BC0A3
:1037900080910C0170E050E040E0811104C050E0E5
:1037A00040E068E070E0CE010E94391E8091E800A0
:1037B0008E778093E80080E2FE01A3E2B2E0019000
:1037C0000D928A95E1F7DF91CF91089568E081E04D
:1037D000CDCF8FEC96E00E9473048091500281114E
:1037E00009C00E94C91F0E9426208091E2008460C7
:1037F0008093E20008958BEC96E00E94730410928F
:103800005002089587EC96E00C94730483EC96E0E4
:103810000C9473048FEB96E00C94730420912102B6
:103820002F5F822F62E30E94C922992319F020930F
:103830002102089510922102809122028823F1F042
:10384000809151028430C1F49091E9009F702091E1
:10385000EC00822F817020FD80E8892B93E090930B
:10386000E9009091EB0090FF04C09091EE0097FD6D
:1038700008C08F708093E900109222020895109280
:10388000F1009091E80095FDFACF9091E80090FF4B
:10389000F0CF9091E8009E779093E800EACF42E065
:1038A00061EC81E00E94451F42E261EC82E00E94EF
:1038B000451F42E261EC83E00C94451F8091530266
:1038C000833009F45FC030F48130C1F1823009F4F3
:1038D0009BC008958A3009F487C08B3009F46DC00D
:1038E000893009F04EC080915202813209F049C0FE
:1038F0008091560290915702029708F042C0809141
:10390000E800877F8093E8008091E80082FF35C05F
:103910009091F3008091F200029729F48091F100D8
:103920008B7F813021F48091F1008093430280915C
:10393000E8008B778093E8000C94791F8091520205
:10394000813AF9F48091E800877F8093E8008091C4
:10395000560290915702892B61F460E283E292E073
:1039600070E00E94881E8091E8008B778093E800C9
:10397000089560E090E080E0F3CF809151028111E2
:10398000C3CF089580915202813AD9F780915602AF
:1039900090915702892BA9F78091E800877F809347
:1039A000E8008091E80080FFFCCF80910C018093BB
:1039B000F1008091E8008E77BDCF80915202813274
:1039C00001F78091560290915702892BD1F6809190
:1039D000E800877F8093E8000E94791F809154025D
:1039E00080930C010C94B41280915202813249F6FA
:1039F0008091E800877F8093E8000E94791F809182
:103A0000550280934402089580915202813A09F050
:103A1000B8CF8091E800877F8093E8008091E8002C
:103A200080FFFCCF80914402C2CF9FB7F8941092E0
:103A300022029FBF90915102943009F048C020911A
:103A4000E9002F703091EC00932F917030FD90E8D9
:103A5000922B23E02093E9002091EB0020FF34C05B
:103A60002091EE0027FF30C020912002222321F078
:103A70002091E80025FF28C01092200226E0309116
:103A8000E80035FF14C08093F1008091E80085FDC7
:103A900027C08091E80080FFFCCF8091E8008E77FE
:103AA0008093E8009F709093E90080E00895309142
:103AB0005102343049F43091EB0035FD05C02150FE
:103AC00041F481E0809320029F709093E9008FEF92
:103AD0000895EFE9FFE03197F1F700C00000CFCF84
:103AE0008FB7F89421E0209322028FBFDBCF84B7F9
:103AF000877F84BF0FB6F894A89580916000886195
:103B000080936000109260000FBE80E890E00FB6D6
:103B1000F89480936100909361000FBE0E94B70EED
:103B20000E94C91F0E9426208091E2008460809339
:103B3000E20078940E94AE220E94C70E82E091E0DB
:103B40000E94EB0D8EEA96E00E9473048091510270
:103B5000853051F48AEA96E00E9473048091510204
:103B6000853049F00E94AF1A0E94F90E0E94C50EDE
:103B70000E94C60EEBCF0E946E1A80914F028823DE
:103B800069F30E949D1A882349F30E94231E0E9414
:103B9000B412E4CF0C94CC1D292F332723303105E8
:103BA00021F168F42130310509F443C02230310598
:103BB00009F444C090E080E030E020E026C02132EB
:103BC000310551F122323105A9F76330710590F7C3
:103BD000FB01EE0FFF1FEA57FE4F208131816D5729
:103BE0007E4FFB01808190E010C0992781309105C4
:103BF00081F0009729F00297E9F6E3EDF6E002C0C4
:103C0000EBEFF6E0849190E09F01FA01318320838D
:103C10000895EDEDF6E0F6CF6330710558F6660FC6
:103C2000771FFB01E457FE4F2081318189E090E04E
:103C3000ECCF82E190E02AE537E0E7CF8BE590E03A
:103C40002FEF36E0E2CF80E189BD82E189BD09B482
:103C500000FEFDCF8091D8008F7D8093D8008091A9
:103C6000E00082608093E0008091E00081FDFCCF65
:103C70000895AF92BF92CF92DF92FF920F931F935E
:103C8000CF93DF936C01EB018A010E94981FF82EFD
:103C9000811123C00115110539F0F801808191814E
:103CA000C81BD90BC80ED91EB12CA12C2097A9F086
:103CB0008091E80085FD22C08091E8008E77809396
:103CC000E80001151105A1F0F80180819181A80E8D
:103CD000B91EB182A08285E0F82E8F2DDF91CF91A1
:103CE0001F910F91FF90DF90CF90BF90AF900895FC
:103CF0000E94981F8823D1F2F82EEFCFF601819110
:103D00006F018093F1002197FFEFAF1ABF0ACECF6A
:103D1000FC01809158029091590286179707A0F0F4
:103D20006115710529F49091E8009E779093E80061
:103D300090E06115710551F4911108C08091E8007F
:103D400082FF34C080E00895BC01F2CF809151021F
:103D50008823C1F18530C1F18091E80083FD30C036
:103D60008091E80082FDEACF8091E80080FFE1CFFA
:103D70008091F3002091F200382F6115710519F040
:103D80002830310558F091E02830310509F090E0F5
:103D90002091E8002E772093E800CBCF819180938B
:103DA000F100615071092F5F3F4FE7CF80915102C1
:103DB000882341F0853041F08091E80083FFBECF39
:103DC00081E0089582E0089583E00895FC018091E8
:103DD00058029091590286179707A0F06115710556
:103DE00029F48091E8008E778093E80090E06115D7
:103DF000710551F4911108C08091E80082FF35C02F
:103E000080E00895BC01F2CF809151028823C9F16E
:103E10008530C9F18091E80083FD31C08091E800D0
:103E200082FDEACF8091E80080FFE1CF8091F3002E
:103E30002091F200382F6115710519F028303105F5
:103E400058F091E02830310509F090E08091E800C9
:103E50008E778093E800CBCF84918093F1003196E8
:103E6000615071092F5F3F4FE6CF80915102882347
:103E700041F0853041F08091E80083FFBDCF81E0C3
:103E8000089582E0089583E00895982F973028F0F0
:103E90008F708093E90081E008959093E900242FCA
:103EA000762F50E0981731F07091EC002091ED00E2
:103EB0005091F00021FD02C09F5FE8CF3091EB00F0
:103EC0003E7F3093EB003091ED003D7F3093ED006D
:103ED0003091EB0031603093EB007093EC00209355
:103EE000ED005093F0002091EE0027FDE5CF80E03B
:103EF00008958091520287FF13C08091E80082FFED
:103F000006C08091E8008B778093E80004C0809120
:103F100051028111F2CF0895809151028823D9F383
:103F20008091E80080FFF8CF8091E8008E77ECCF99
:103F30002091E4003091E50095E6A9012091EC0084
:103F4000822F817020FF06C08091E80080FF06C0AC
:103F500080E008952091E80022FD1AC0809151026E
:103F6000882389F0853089F08091EB0085FD0FC0B2
:103F70002091E4003091E50042175307F9F2915087
:103F8000E1F684E0089582E0089583E0089581E0F9
:103F900008950E9437200E943F20E0EEF0E08081EB
:103FA00081608083E8EDF0E080818F77808319BCA9
:103FB000A7EDB0E08C918E7F8C9380818F7E808383
:103FC0001092500208950F931F93CF93DF930E9496
:103FD00037200E943F20C8EDD0E088818F7788830A
:103FE00088818068888388818F7D888319BC10923E
:103FF000510210924D0210924F0210924E0200EEAA
:1040000010E0F80180818B7F8083888181608883C4
:1040100042E060E080E00E94451FE1EEF0E0808138
:104020008E7F8083E2EEF0E08081816080838081FA
:1040300088608083F80180818E7F808388818061A1
:104040008883DF91CF911F910F910895E8EDF0E003
:1040500080818F7E8083E7EDF0E0808181608083C6
:1040600084E082BF81E0809350020C94E31FE8ED6E
:10407000F0E080818E7F80831092E200089510929C
:10408000DA001092E10008951F920F920FB60F927E
:1040900011242F933F934F935F936F937F938F934D
:1040A0009F93AF93BF93EF93FF938091E10082FFC3
:1040B0000BC08091E20082FF07C08091E1008B7FFE
:1040C0008093E1000E940E1C8091DA0080FF19C0ED
:1040D0008091D80080FF15C08091DA008E7F809398
:1040E000DA008091D90080FF96C080E189BD82E12D
:1040F00089BD09B400FEFDCF81E0809351020E948A
:10410000E91B8091E10080FF19C08091E20080FFEF
:1041100015C08091E2008E7F8093E2008091E200E2
:1041200080618093E2008091D80080628093D80003
:1041300019BC85E0809351020E94061C8091E10029
:1041400084FF2BC08091E20084FF27C080E189BDFD
:1041500082E189BD89B5982F917080FFFBCF809156
:10416000D8008F7D8093D8008091E1008F7E80936E
:10417000E1008091E2008F7E8093E2008091E20076
:1041800081608093E20080914D02882309F449C048
:1041900084E0809351020E940A1C8091E10083FF19
:1041A00029C08091E20083FF25C08091E100877FD4
:1041B0008093E10082E08093510210924D02809141
:1041C000E1008E7F8093E1008091E2008E7F8093FA
:1041D000E2008091E20080618093E20042E060E0D2
:1041E00080E00E94451F8091F00088608093F0007D
:1041F0000E94021CFF91EF91BF91AF919F918F910F
:104200007F916F915F914F913F912F910F900FBED2
:104210000F901F90189519BC109251020E94FB1B21
:1042200070CF8091E30087FD93E090935102B3CF6C
:104230001F920F920FB60F9211242F933F934F931B
:104240005F936F937F938F939F93AF93BF93CF931E
:10425000DF93EF93FF93D091E900DF708091EC0042
:10426000C82FC17080FDC0E81092E9008091F00075
:10427000877F8093F00078940E945C211092E9007F
:104280008091F00088608093F000CD2BCF70C093B8
:10429000E900FF91EF91DF91CF91BF91AF919F9195
:1042A0008F917F916F915F914F913F912F910F90DF
:1042B0000FBE0F901F9018951F93CF93DF93CDB72C
:1042C000DEB7AA970FB6F894DEBF0FBECDBF82E56A
:1042D00092E02091F100FC012193CF01F2E08A35B8
:1042E0009F07B9F70E945E1C8091E80083FF1EC102
:1042F00080915202909153029A3008F017C1E92F31
:10430000F0E0EC55FC4D0C94E922803899F08238AD
:1043100009F00CC1809156028F70873008F006C1F9
:104320008093E9008091EB0085FB882780F910924B
:10433000E90006C080914E0290914F029111826077
:104340009091E800977F9093E8008093F10010929D
:10435000F1008091E8008E77E5C0882309F4D3C08E
:10436000823009F0E3C0809154028111D6C080915F
:1043700056028F702FEF280F263008F0D7C0809399
:10438000E9002091EB0020FFC8C0933031F4809108
:10439000EB0080628093EB00C0C09091EB009061D5
:1043A0009093EB0021E030E001C0220F8A95EAF7FC
:1043B0002093EA001092EA008091EB008860EACF37
:1043C0008111B4C0109154021F778091E30080786E
:1043D000812B8093E3008091E800877F8093E80041
:1043E0000E94791F8091E80080FFFCCF8091E3005C
:1043F00080688093E30082E0111183E08093510292
:1044000095C08058823008F091C0809154029091FC
:1044100055028C3D23E09207A1F583E08A838AE26E
:1044200089834FB7F894DE01139620E03EE051E215
:10443000E32FF0E050935700E49120FF03C0E29592
:10444000EF703F5FEF708E2F90E0EA30C0F0C796BC
:104450008D939D932F5F243159F74FBF8091E800D2
:10446000877F8093E8006AE270E0CE0101960E94A7
:10447000881E8091E8008B778093E80057C0C09633
:10448000E7CF6091560270915702AE014F5F5F4FC8
:104490000E94CA1DBC01892B09F448C09091E80014
:1044A000977F9093E80089819A810E94E61EE1CF70
:1044B0008038E1F58091E800877F8093E800809163
:1044C0004D028093F10045CF811130C0909154028C
:1044D000923060F58091E800877F8093E8009093A8
:1044E0004D020E94791F80914D02882311F084E0D3
:1044F00005C08091E30087FDFACF81E080935102EF
:104500000E944F1C13C080915402813079F481E0E5
:10451000933009F080E080934F021092E90080917F
:10452000E800877F8093E8000E94791F8091E8006F
:1045300083FF0AC08091E800877F8093E800809124
:10454000EB0080628093EB00AA960FB6F894DEBF72
:104550000FBECDBFDF91CF911F910895CF93809172
:1045600051028823A1F0C091E900CF709091EC0036
:10457000892F817090FD80E8C82B1092E90080910E
:10458000E80083FD0E945C21CF70C093E900CF91C9
:104590000895991B79E004C0991F961708F0961B9F
:1045A000881F7A95C9F78095089597FB072E16F412
:1045B000009407D077FD09D00E94EF2207FC05D0B8
:1045C0003EF4909581959F4F0895709561957F4F2A
:1045D0000895EE0FFF1F0590F491E02D0994AA1B9A
:1045E000BB1B51E107C0AA1FBB1FA617B70710F0DE
:1045F000A61BB70B881F991F5A95A9F78095909510
:10460000BC01CD010895F999FECF92BD81BDF89A04
:10461000992780B50895A8E1B0E042E050E00C94FD
:104620003723262FF999FECF92BD81BDF89A0197C5
:1046300000B4021639F01FBA20BD0FB6F894FA9AEA
:10464000F99A0FBE08950396272F0E9412230E9405
:104650001123252F0E941223242F0C94122301963C
:10466000272F0E9412230C941123DC01CB01FC01A3
:10467000F999FECF06C0F2BDE1BDF89A319600B4BB
:104680000D9241505040B8F70895F894FFCF700A4A
:104690005D0A770AF908340B340B580A340B340BD3
:1046A000A30A340BB30A1A0B340B340B340B340B40
:1046B000D60A340B340BC30A340B8E0A340B340B7A
:1046C000320B320B320B320B320B320B320B320B02
:1046D000320B2C0B340B700A510A340B340B340B95
:1046E000340B340B340B340B340B340B340B2C0BDA
:1046F000340B340B580A340B300B300B300B300BAF
:10470000300B300B300B300B300B2C0B8C108C1013
:10471000E410E4103611B910B910B9105211DE11BD
:10472000ED11ED114912B910B9105212C312C31292
:10473000CC12CC12CE12CC12CC12CC12C312C31299
:10474000D312CC12CC12D3128521AD219622AD21E9
:0C4750009622E0210122962258226422C9
:10475C00FB016A1BA91B6D1BA51BA11B01E200E938
:10476C0000EA00B500B600B700CD008301CC008A8A
:10477C000192019401210223022402250226022720
:10478C00022A02B300B4006F007000818283976626
:10479C00940000FF0100010000FFFF000001000178
:1047AC00FF00E200E900EA00B500B600B700CD005A
:1047BC008301CC008A01920194012102230224027C
:1047CC002502260227022A02B300B4006F007000F3
:1047DC00818283406D22FB078E076C0711072A0725
:0247EC00430781
:00000001FF
